:100000000C9434000C943E000C943E000C943E0082
:100010000C943E000C943E000C943E000C943E0068
:100020000C943E000C943E000C943E000C943E0058
:100030000C943E000C943E000C943E000C943E0048
:100040000C943E000C943E000C943E000C943E0038
:100050000C943E000C943E000C943E000C943E0028
:100060000C943E000C943E0011241FBECFEFD8E04C
:10007000DEBFCDBF0E946D000C947D000C9400008B
:100080008AB188668AB9E1EBF0E083E08083808101
:1000900080628083808181608083089550E05093E6
:1000A00089004093880008958095853520F4982F25
:1000B000990F890F07C08A3A58F48555982F990FE0
:1000C000890F809590E0909389008093880008952F
:1000D000109289001092880008950E944000C0E0AC
:1000E0008C2F0E9454008FE39CE90197F1F700C028
:0E00F0000000CF5FCF3FA1F7F2CFF894FFCF13
:00000001FF
