:100000000C9434000C9451000C9451000C94510049
:100010000C9451000C9451000C9451000C9451001C
:100020000C9451000C9451000C9451000C9451000C
:100030000C9451000C9451000C9477000C945100D6
:100040000C9451000C9451000C9451000C945100EC
:100050000C9451000C9451000C9451000C945100DC
:100060000C9451000C94510011241FBECFEFD8E026
:10007000DEBFCDBF11E0A0E0B1E0E2EBF1E002C0F5
:1000800005900D92A430B107D9F721E0A4E0B1E0CA
:1000900001C01D92A630B207E1F70E94D0000C9477
:1000A000D7000C94000014BC85E085BD82E08093ED
:1000B0006E0085BB0895E0E8F0E08081836880836E
:1000C000E1E8F0E0808180618083808181608083CD
:1000D0008EE190E0909387008093860080910401E8
:1000E00090910501909389008093880008951F9254
:1000F0000F920FB60F9211242F933F938F939F93DC
:1001000080910401909105018E3191058CF420912C
:100110000201309103012130310551F42091000199
:1001200030910101820F931F909305018093040188
:1001300080910401909105018E31910529F410926E
:1001400003011092020103C01816190684F42091CD
:10015000020130910301232B51F4209100013091D1
:100160000101821B930B9093050180930401809100
:10017000040190910501009731F421E030E03093C3
:1001800003012093020190938900809388009F913E
:100190008F913F912F910F900FBE0F901F90189548
:1001A000219A0E945B000E9453007894FFCFF8943C
:0201B000FFCF7F
:0401B2000100010047
:00000001FF
